:020000040800F2
:10000000C822002015020008D50B0008F3040008E0
:10001000D10B00089D030008570E000800000000E7
:10002000000000000000000000000000F90B0008C4
:10003000A103000800000000D70B00080D0D000808
:100040002F0200082F0200082F0200082F020008CC
:100050002F0200082F0200082F0200082F020008BC
:100060002F0200082F0200082F0200082F020008AC
:100070002F0200082F0200082F0200082F0200089C
:100080002F0200082F0200082F0200082F0200088C
:100090002F0200082F0200082F0200082F0200087C
:1000A0002F0200082F0200082F0200082F0200086C
:1000B0002F0200082F0200082F0200082F0200085C
:1000C0002F0200082F0200082F0200082F0200084C
:1000D0002F020008710D00082F0200082F020008EF
:1000E0002F0200082F0200082F0200082F0200082C
:1000F0002F0200082F0200082F0200082F0200081C
:100100002F0200082F0200082F0200082F0200080B
:100110002F0200082F0200082F0200082F020008FB
:100120002F0200082F0200082F0200082F020008EB
:1001300000F002F800F05EF80AA090E8000C82449B
:100140008344AAF10107DA4501D100F053F8AFF278
:10015000090EBAE80F0013F0010F18BFFB1A43F0A5
:1001600001031847A8490000C849000010F8013BE6
:100170000A4413F0030408BF10F8014B1D1108BF17
:1001800010F8015B641E05D010F8016B641E01F8C5
:10019000016BF9D1002D15D010F8014B03F00C03C1
:1001A0000C2BA1EB04040ABF10F8013BA4EB831451
:1001B000A4EB032405F1010314F8016B5B1E01F8A5
:1001C000016BF9D5914238BF10F8013BD1D370478C
:1001D0000023002400250026103A28BF78C1FBD850
:1001E000520728BF30C148BF0B6070471FB51FBD05
:1001F00010B510BD00F078F81146FFF7F7FF00F0DA
:10020000C3FE00F096F803B4FFF7F2FF03BC00F062
:1002100024FE00000948804709480047FEE7FEE742
:10022000FEE7FEE7FEE7FEE7FEE7FEE7FEE7FEE7A6
:1002300004480549054A064B70470000110D0008A7
:1002400031010008C81C0020C8220020C81E002060
:10025000C81E0020704700004FF0013C50F8042BEE
:1002600051F8043B9A4221D1A2EB0C03934313EAC9
:10027000CC1317D150F8042B51F8043B9A4215D1F6
:10028000A2EB0C03934313EACC130BD150F8042BCD
:1002900051F8043B9A4209D1A2EB0C03934313EAB1
:1002A000CC13DBD04FF00000704700BFD01A01BA6A
:1002B000B1FA81F101F0180122FA01F0CB40C1F14D
:1002C0002001DBB2C0B2C01A2CFA01F3D11A91435B
:1002D00011EAC311E6D17047704770477047704705
:1002E00000487047641C00207546FFF7F9FFAE46D2
:1002F00005006946534620F00700854618B020B532
:10030000FFF796FFBDE820404FF000064FF00007D2
:100310004FF000084FF0000B21F00701AC46ACE8AD
:10032000C009ACE8C009ACE8C009ACE8C0098D461A
:1003300070470446AFF300802046FFF764FF0000DB
:100340002DE9F04107460C4615461E46124908891C
:1003500000F0CAFA380A00F0AFFA384600F0ACFAFA
:10036000280A00F0A9FA284600F0A6FA0A494889A6
:1003700000F0BAFA200A00F09FFA204600F09CFA3A
:10038000300A00F099FA304600F096FA2C2000F07E
:10039000ABFABDE8F0810000581C002000BFFEE76A
:1003A000704770B504460D4616462B462246294630
:1003B0002046FFF7C5FF304600F07EFA70BD2DE9FC
:1003C000F0410246002500260020002300240027DB
:1003D00091F803C00CF00F0591F803C00CF0100C5D
:1003E000BCF1000F03D091F802C04CEA050591F86A
:1003F00000C0BCF1000F31D0146800202BE04FF09A
:10040000010C0CFA00F3B1F800C00CEA03069E429E
:1004100020D183004FF00F0C0CFA03F7BC4305FA10
:1004200003FC4CEA040491F803C0BCF1280F06D188
:100430004FF0010C0CFA00FCC2F814C00AE091F86D
:1004400003C0BCF1480F05D14FF0010C0CFA00FCC1
:10045000C2F810C0401C0828D1D31460B1F800C005
:10046000BCF1FF0F34DD546800202EE000F1080CD1
:100470004FF0010808FA0CF3B1F800C00CEA0306CB
:100480009E4221D183004FF00F0C0CFA03F7BC43BE
:1004900005FA03FC4CEA040491F803C0BCF1280FF0
:1004A00005D100F1080C08FA0CF8C2F8148091F894
:1004B00003C0BCF1480F07D100F1080C4FF0010850
:1004C00008FA0CF8C2F81080401C0828CED35460FB
:1004D000BDE8F0810246002093680B400BB101207B
:1004E00000E0002070474161704701617047C160C2
:1004F000704700BFFEE7000070B506460E48408812
:10050000431E0D480088421E00210846FFF718FFD1
:1005100000240CE0002504E0304600F0D9F9681C06
:1005200085B205484088A842F6DC601C84B20248C7
:100530000088A042EEDC70BD581C002010B50446B7
:100540008CB9002013490871F02008804FF4A07086
:1005500048802C20C8802A2008812B204881002038
:100560000D49087010E001200A4908714FF4A0708D
:100570000880F02048802C20C8802B2008812A2069
:1005800048810120044908700348007800F06EF8A3
:1005900010BD0000581C00208E1B00202DE9FF4FCD
:1005A00085B081468A460020049003900898A0EB0D
:1005B0000A060798A0EB0905CDF80890CDF804A02D
:1005C000002D01DD012705E00DB9002702E04FF005
:1005D000FF376D42002E02DD4FF0010806E016B92C
:1005E0004FF0000802E04FF0FF387642B54201DDDF
:1005F0002C4600E034464FF0000B21E0019A91B206
:10060000029A90B200F022F80498284404900398CB
:10061000304403900498A04205DD0498001B049028
:100620000298384402900398A04205DD0398001B0D
:1006300003900198404401900BF101001FFA80FBE8
:10064000601C8345DADD09B0BDE8F08F70B5044663
:100650000D462B46224629462046FFF771FE0248EA
:10066000008800F029F970BD8C1B002070B505468C
:1006700000240026082D1CD2DFE805F00406090C32
:100680000F12151800BF14E044F0800411E044F08C
:1006900040040EE044F0C0040BE044F0200408E005
:1006A00044F0600405E044F0A00402E044F0E004FB
:1006B00000BF00BF362644F008042146304600F053
:1006C0001FF91649088900F00FF9002000F0F4F82E
:1006D000002000F0F1F811490988491E081200F0C5
:1006E000EBF80E490978491EC8B200F0E5F80B494D
:1006F000488900F0F9F8002000F0DEF8002000F052
:10070000DBF806494988491E081200F0D5F803496C
:100710008978491EC8B200F0CFF870BD581C00207F
:100720002DE9F84F80460F4616461C46BB4620462C
:10073000E31704EB5373DB1021464FEAE47C04EB30
:100740005C7C4FEAEC0CA4EBCC0CBCF1000F02D0AB
:100750004FF0010C01E04FF0000C6344224604EB23
:10076000D27C4FEA6C0C03FB0CF3DBB20093A6F1D6
:100770002000C6B200255EE00C2C07D106EB460037
:100780002F4901EB800010F805901BE0102C05D1DB
:100790002C4800EB061010F8059013E0182C07D138
:1007A00006EBC600284901EB800010F8059009E02F
:1007B000202C05D1254800EB861010F8059001E0AB
:1007C000BDE8F88F4FF0000A2FE009F0800030B14B
:1007D0001F48028839464046FFF7E3FD07E00A98C4
:1007E00028B91C48028839464046FFF7DAFD4FEA2F
:1007F00049604FEA1069781C87B217484088B842B0
:1008000000DCDDE7A7EB0B00A0420AD15F4608F150
:1008100001001FFA80F810480088404500DCCFE74F
:1008200006E00AF1010000F0FF0ABAF1080FCCDB84
:1008300000BF681CC5B2009885429DDB00BFBFE7C2
:1008400050140008C4180008B41E0008102C00083A
:100850008C1B00208A1B0020581C00202DE9FF4F14
:1008600081B0074690461D46DDE90E6A00241EE071
:10087000281B401EC1B20A2000F0D6FCB8FBF0F0E5
:100880000A21B0FBF1F201FB1209B34606EBDB7162
:10089000491001FB047188B209F13001CAB2334634
:1008A000CDF800A00299FFF73BFF601CC4B2AC4238
:1008B000DEDB05B0BDE8F08F10B50446012003492A
:1008C0000860A0B200F026F810BD000080012342AD
:1008D00010B50446012003490860204600F01AF8CC
:1008E00010BD00008001234210B5044600200349DA
:1008F0000860A0B200F00EF810BD00008001234295
:1009000070B505460C462846FFF7EEFF2046FFF778
:10091000D3FF70BD10B5044621460548FFF7E7FD3B
:1009200000200449086001200349C1F8840110BD7A
:1009300000140140840123420000234208B5012134
:10094000602000F049F94FF6FF70ADF8000010206C
:100950008DF8030003208DF8020069469848FFF7E0
:100960002EFD4FF6FF70ADF8000010208DF803004B
:1009700003208DF8020069469248FFF720FD012010
:10098000914908609149C1F8840100208E49091DF0
:100990000860142000F0D2FA01208C49C1F88C01C3
:1009A000142000F0CBFA002087490860CF20FFF721
:1009B0009BFF0020FFF780FFC120FFF77DFF302065
:1009C000FFF77AFFED20FFF78FFF6420FFF774FF3A
:1009D0000320FFF771FF1220FFF76EFF8120FFF762
:1009E0006BFFCB20FFF780FF3920FFF765FF2C203E
:1009F000FFF762FF0020FFF75FFF3420FFF75CFF87
:100A00000220FFF759FFEA20FFF76EFF0020FFF7F3
:100A100053FF0020FFF750FFE820FFF765FF852018
:100A2000FFF74AFF1020FFF747FF7920FFF744FF49
:100A3000C020FFF759FF2320FFF73EFFC120FFF73B
:100A400053FF1120FFF738FFC220FFF74DFF1120A1
:100A5000FFF732FFC520FFF747FF3D20FFF72CFFD0
:100A60003020FFF729FFC720FFF73EFFAA20FFF73E
:100A700023FF3A20FFF738FF5520FFF71DFF3620F0
:100A8000FFF732FF0820FFF717FFB120FFF72CFF19
:100A90000020FFF711FF1120FFF70EFFB620FFF730
:100AA00023FF0A20FFF708FFA220FFF705FFF2202F
:100AB000FFF71AFF0020FFF7FFFEF720FFF714FFF4
:100AC0002020FFF7F9FEF120FFF70EFF0120FFF7CE
:100AD000F3FE3020FFF7F0FE2620FFF705FF012090
:100AE000FFF7EAFEE020FFF7FFFE0F20FFF7E4FE2E
:100AF0003F20FFF7E1FE2F20FFF7DEFE0C20FFF77F
:100B0000DBFE1020FFF7D8FE0A20FFF7D5FE5320AA
:100B1000FFF7D2FED520FFF7CFFE4020FFF7CCFE37
:100B20000A20FFF7C9FE1320FFF7C6FE0320FFF7D8
:100B3000C3FE0820FFF7C0FE0320FFF7BDFE002024
:100B4000FFF7BAFEE120FFF7CFFE0020FFF7B4FE6B
:100B50000020FFF7B1FE1020FFF7AEFE0320FFF7E5
:100B6000ABFE0F20FFF7A8FE0520FFF7A5FE2C2007
:100B7000FFF7A2FEA220FFF79FFE3F20FFF79CFE9B
:100B80000520FFF799FE0E20FFF796FE0C20FFF7D9
:100B900093FE3720FFF790FE3C20FFF78DFE0F20DD
:100BA000FFF78AFE1120FFF79FFE502000F0C6F9E4
:100BB0002920FFF799FE0020FFF7C0FC08BD0000C8
:100BC0000014014000180140880123420000234224
:100BD00000BFFEE77047704729B1064A9269024399
:100BE000044B9A6104E0034A92698243014B9A6183
:100BF0007047000000100240704710B500F002F886
:100C000010BD00000CB50020019000903348006832
:100C100040F480303149086000BF3048006800F47B
:100C2000003000900198401C0190009818B901987C
:100C3000B0F5A06FF1D12948006800F4003010B180
:100C40000120009001E0002000900098012843D18D
:100C50002348006840F010002149086008460068F9
:100C600020F0030008600846006840F002000860B9
:100C70001A48406819494860084640684860084674
:100C8000406840F4806048600846406820F47C106A
:100C900048600846406840F4E8104860084600682C
:100CA00040F08070086000BF0C48006800F00070E1
:100CB0000028F9D00948406820F00300074948603F
:100CC0000846406840F00200486000BF03484068A2
:100CD00000F00C000828F9D10CBD00000010024003
:100CE00000200240042808D14FF0E021096941F0BA
:100CF00004014FF0E022116107E04FF0E0210969A3
:100D000021F004014FF0E0221161704770470000AC
:100D100010B51348006840F001001149086008460A
:100D20004068104908400E494860084600680E496E
:100D300008400B4908600846006820F480200860DD
:100D40000846406820F4FE0048604FF41F008860A9
:100D5000FFF753FF4FF000600449086010BD00002A
:100D6000001002400000FFF8FFFFF6FE08ED00E073
:100D700010B540F225511D4800F03EF810B31B4855
:100D800000F064F8C4B21A48008800F40040C8B902
:100D90001748008800F4804060B10A2C03D000207E
:100DA0001349088020E01248008840F400401049B0
:100DB000088019E00D2C06D10D48008840F48040D1
:100DC0000B49088010E00A480088C0F30D0009496B
:100DD0000C5407480088401C0549088008460088D4
:100DE000C72801DD0020088010BD00000038014048
:100DF0001C000020901B002070B502460024002338
:100E00000025002040F66A16B14200D100BFC1F3B0
:100E1000421501F01F03012606FA03F3012D02D14A
:100E20009689334006E0022D02D1168A334001E054
:100E3000968A33400C12012606FA04F416883440D0
:100E400013B10CB1012000E0002070BD014688887C
:100E5000C0F30800704700BFFEE7014600BF7047BF
:100E600070B5002500BF02212048FFF73EFB02219C
:100E70001E48FFF738FB00240FE04FF480711C4838
:100E8000FFF733FB00BF00BF4FF480711848FFF736
:100E90002AFB00BF00BF601CC4B2032CEDDB0024A2
:100EA0001BE04FF480711248FFF71FFB00BF00BF2B
:100EB0004FF480710E48FFF716FB00BF4FF6FF702E
:100EC00000EA45054FF480710A48FFF703FB01284B
:100ED00001D1681C85B2601CC4B20C2CE1DB02217C
:100EE0000248FFF702FB00BF284670BD0008014022
:100EF000000C01400014014010B56FF00400FFF732
:100F0000F1FE0A4800680A49B0FBF1F0094908708F
:100F10000846007800EB4001C1EBC0104FF6FF71AE
:100F200001EAC0000449088010BD00000000002054
:100F300000127A0014000020160000200146114A19
:100F400012884A434FF0E0235A6100229A611A4600
:100F5000126942F001021A6100BF4FF0E0221069ED
:100F600000F001021AB100F48032002AF5D04FF0EF
:100F7000E022126922F001024FF0E0231A61002200
:100F80009A617047160000200EB5FFF7B5FFFFF716
:100F9000D5FC0120FFF7D2FA4FF6FF70FFF7ACFA4D
:100FA00001212020FFF718FE01210420FFF714FE85
:100FB00001210820FFF710FE4FF48070ADF8080003
:100FC00028208DF80B0001208DF80A0002A9764830
:100FD000FFF7F5F94FF48070ADF8080010208DF898
:100FE0000B0003208DF80A0002A97048FFF7E7F90B
:100FF0004FF480716D48FFF776FA0220ADF80800D3
:1010000010208DF80B0003208DF80A0002A9684813
:10101000FFF7D5F902216648FFF767FA4FF47840E9
:1010200064490880182364A20F219E2000F0CAF9A9
:10103000182364A232211F2000F0C4F9182367A2EC
:101040005F211F2000F0BEF918236AA28C211F2007
:1010500000F0B8F918236DA2B9211F2000F0B2F9F1
:10106000052340F23B1219461846FFF797FAEB2387
:10107000052211461046FFF791FAEB2340F23B128E
:1010800019460520FFF78AFAEB2340F23B120521AF
:101090001046FFF783FA002046490880102361A21A
:1010A000D721072000F08EF97CE00025002605E01E
:1010B000FFF7D6FE0446281985B2761C0A2EF7DB08
:1010C0000A2095FBF0F085B205EB450101EBC50068
:1010D000C11700EB11510F1341F2680105FB01F03C
:1010E000C11700EB11514FEA2138002010210423D1
:1010F0002246CDE900100A210846FFF7AFFB002089
:10110000182101233A46CDE90010BA21B420FFF797
:10111000A5FB0020182103234246CDE90010BA2187
:10112000D620FFF79BFB0020182101230246CDE9C2
:1011300000103221B420FFF791FB00201821032377
:101140000246CDE900103221D620FFF787FB0020B0
:10115000182101230246CDE900105F21B420FFF7DA
:101160007DFB0020182103230246CDE900105F21FA
:10117000D620FFF773FB0020182101230246CDE99A
:1011800000108C21B420FFF769FB002018210323F5
:101190000246CDE900108C21D620FFF75FFB02202C
:1011A000FFF7CCFE81E7000000140140000C014075
:1011B000000801408C1B0020B7E5D6B5BCECB2E2BC
:1011C0000000000031304BD5FDCFD2B2A83A20202C
:1011D00020202E20202020560000000033304BD548
:1011E000FDCFD2B2A83A202020202E202020205649
:1011F0000000000035304BD5FDCFD2B2A83A2020F8
:1012000020202E20202020560000000020B7BD20E6
:101210002020B2A8203A202020202E202020205656
:1012200000000000CFC4000010B50246012000E01D
:1012300050430B00A1F10104E1B2F9D110BD00004F
:101240002DE9FF4F83B080468A461C46CDF80880C2
:101250002046E21704EB5272D2102146E31704EB4A
:101260005373DB10A4EBC3030BB1012300E0002395
:101270001A446243D2B2019200252BE0102C0BD10C
:10128000C5EBC50101EB8101484A88180599FEF7B5
:10129000E3FFE8B92E461FE0182C0BD1C5EB051172
:1012A00001EB8101424A88180599FEF7D5FF78B90C
:1012B0002E4611E0202C0BD105EB450101EBC511A9
:1012C0003C4A88180599FEF7C7FF08B92E4603E087
:1012D000681CC5B2642DD1DB00BF002760E0102C74
:1012E00009D1C6EBC60000EB800030490844C01CA1
:1012F00010F8079016E0182C09D1C6EB061000EB89
:1013000080002B490844C01C10F807900AE0202CEC
:1013100008D106EB460000EBC61026490844C01C65
:1013200010F807904FF0000B34E009F0800030B166
:101330002148028851464046FFF733F805E01F4830
:10134000028851464046FFF72CF84FEA49604FEAC1
:10135000106908F1010000F0FF0819484088504565
:1013600002DC07B0BDE8F08F0298A8EB0000A042B5
:101370000CD1029800F0FF080AF101001FFA80FA70
:101380000F480088404500DCEBE706E00BF1010068
:1013900000F0FF0BBBF1080FC7DB00BF781CC7B222
:1013A000019887429BDB00BFDBE700001E000020A6
:1013B000C2010020D04300088C1B00208A1B0020A3
:1013C000581C00202DE9FC470646884615461F4656
:1013D000002400BF36E0285D8DF80400601C285C06
:1013E0008DF805009DF80400202803DC9DF804001A
:1013F000202819D19DF804007E2803DB9DF8040005
:101400007E2811D1002007FB04F909EBD97106EB06
:101410006101009088B29DF804203B464146FFF7E9
:101420007FF9601CC4B20DE007FB04F909EBD97128
:1014300006EB6101C8B23B4601AA4146FFF700FF37
:10144000A01CC4B2285D0028C5D1BDE8FC870000FF
:10145000000000000000000000000000000000008C
:101460003E4000000000000000002000C0002000FE
:10147000C000000009003FC009003FC00900000093
:10148000188024407FE02240118000001C0022C010
:101490001F000B803440038003801C4027401880CD
:1014A000074004802000C000000000000000000091
:1014B000000000001F0060C08020000000008020AD
:1014C00060C01F0000000000090006001F80060029
:1014D000090000000000040004001F0004000400D4
:1014E000002000C000000000000000000400040014
:1014F000040004000400040000000040000000009C
:1015000000000000002000C003000C00300040007C
:101510001F802040204020401F800000000010401D
:101520003FC000400000000018C02140224024407D
:101530001840000010802040244024401B80000000
:101540000300050019403FC0014000003E802440D8
:1015500024402440238000000F8012402440244077
:10156000138000000000200023C02C003000000089
:101570001B802440244024401B8000001C8022400B
:10158000224024801F0000000000000008400000EE
:1015900000000000000000000460000000000000E7
:1015A0000000060009001080204000000A000A0028
:1015B0000A000A000A000A0000002040108009000A
:1015C000060000001800200023402400180000003E
:1015D0000F00108027402F4021401E80004007C090
:1015E00039000F0001C0004020403FC0244024408B
:1015F0001B8000001F8020402040204030800000E1
:1016000020403FC0204020401F80000020403FC0BD
:1016100024402E4030C0000020403FC024402E0017
:10162000300000000F001080204022403380020074
:1016300020403FC0040004003FC020402040204024
:101640003FC02040204000000030201020103FE02C
:101650002000200020403FC024400A0031C020402C
:1016600020403FC020400040004000C03FC03C0040
:1016700003C03C003FC0204020403FC00C4023003E
:101680003FC020001F802040204020401F800000DD
:1016900020403FC024402400180000001F8021404B
:1016A000214020E01FA0000020403FC02440260031
:1016B00019C0004018C0244024402240318000005E
:1016C000300020403FC020403000000020003F801C
:1016D000004000403F80200020003E0001C0070085
:1016E000380020003C0003C03E0003C03C00000066
:1016F000204039C0060039C02040000020003C4096
:1017000003C03C4020000000304021C0264038404B
:1017100020C0000000000000FFE0802080200000CA
:10172000000060001C0003800060000000008020BA
:101730008020FFE00000000000004000800040002A
:101740000000000000100010001000100010001039
:101750000000800040000000000000000000028047
:101760000540054003C0004040007FC004400440E5
:101770000380000000000380044004400680000055
:1017800000000380044044407FC00040000003800C
:101790000540054003400000000004403FC04440B5
:1017A00044402000000002A00550055006500420CF
:1017B00040407FC00440040003C0004000000440DB
:1017C00067C000400000000000100010041067E037
:1017D0000000000040407FC001000680044000007F
:1017E000404040407FC000400040000007C004006F
:1017F00007C0040003C00000044007C00440040008
:1018000003C0004000000380044004400380000047
:10181000041007F00450044003800000000003801F
:101820000440045007F00010044007C002400400C8
:1018300004000000000006400540054004C0000010
:10184000000004001FC004400440000004000780A2
:101850000040044007C000400400070000C007002B
:1018600004000000060001C0070001C006000000DF
:10187000044006C0010006C0044000000410071028
:1018800000A000C0070004000000044005C006409E
:1018900004400000000000000400FFE08020000081
:1018A000000000000000FFF00000000000008020A9
:1018B000FBE00400000000004000800080004000C9
:1018C0008000000000000000000000000000000098
:1018D000000000000000000000001FCC000000001D
:1018E0000000000000000800300040000800300048
:1018F000400000000000022003FC1E20022003FC28
:101900001E20000000000E18110411043FFF108477
:101910000C7800000F00108C0F3001C0067818847E
:101920000078000000780F8410C411340E9800E491
:101930000084000800004800700000000000000063
:101940000000000000000000000007E0181820045C
:1019500040020000000040022004181807E00000C8
:10196000000000000240024001800FF001800240B0
:1019700002400000000000800080008007F000802E
:101980000080008000000009000E00000000000040
:1019900000000000000000800080008000800080C7
:1019A000008000000000000C000C0000000000009F
:1019B0000000000000000006001800E003001C000A
:1019C00020000000000007F00808100410040808B8
:1019D00007F0000000000000080408041FFC0004D9
:1019E0000004000000000E0C101410241044108499
:1019F0000F0C000000000C18100410841084114417
:101A00000E3800000000006001A002240C241FFC1E
:101A10000024002400001F981104110411041088F0
:101A200010700000000007F0088811041104090478
:101A300000F80000000018001000107C1180160053
:101A40001800000000000E38114410841084114466
:101A50000E38000000000F80104810441044088821
:101A600007F00000000000000000030C030C000061
:101A7000000000000000000000000107000000005E
:101A8000000000000000008001400220041008084F
:101A900010040000000002400240024002400240E8
:101AA0000240000000001004080804100220014059
:101AB0000080000000000E001200100C10EC11005D
:101AC0000E00000003E00C1813E4141417F40814BB
:101AD00007E800000004003C03C41C40074000E489
:101AE000001C000410041FFC1104110411040E88D2
:101AF0000070000003E00C1810041004100410081B
:101B00001C10000010041FFC10041004100408082E
:101B100007F0000010041FFC1104110417C4100486
:101B20000818000010041FFC1104110017C0100059
:101B30000800000003E00C181004100410441C7886
:101B40000040000010041FFC1084008000801084FE
:101B50001FFC10040000100410041FFC10041004EB
:101B60000000000000030001100110011FFE100022
:101B70001000000010041FFC110403801464181CE2
:101B80001004000010041FFC1004000400040004F2
:101B9000000C000010041FFC1F80007C1F801FFC35
:101BA0001004000010041FFC0C04030000E01018D7
:101BB0001FFC100007F008081004100410040808A7
:101BC00007F0000010041FFC1084108010801080AB
:101BD0000F00000007F0080810141014100C080A79
:101BE00007F2000010041FFC1104110011C0113095
:101BF0000E0C000400000E1C11041084108410440C
:101C00001C3800001800100010041FFC1004100005
:101C10001800000010001FF8100400040004100455
:101C20001FF8100010001E0011E0001C007013804F
:101C30001C00100010001FC0007C1F80007C1FC013
:101C4000100000001004180C163401C001C0163436
:101C5000180C100410001C00130400FC13041C00DA
:101C6000100000000804101C1064108413041C04ED
:101C7000101800000000000000007FFE400240023B
:101C800040020000000020001C0003800060001CD7
:101C90000003000000004002400240027FFE0000FE
:101CA0000000000000000000200040004000200074
:101CB000000000000001000100010001000100011E
:101CC0000001000100004000400020000000000072
:101CD000000000000000009801240124014800FCDD
:101CE0000004000008000FFC0088010401040088C3
:101CF000007000000000007000880104010401046D
:101D000000880000000000F8010401040104090833
:101D10000FFC0004000000F8012401240124012428
:101D200000E8000000000104010407FC09040904A4
:101D300004000000000000D601290129012901C981
:101D40000106000008040FFC0084010001000104EA
:101D500000FC000400000104190419FC0004000444
:101D6000000000000000000300010101190119FE3C
:101D70000000000008040FFC002400600194010C26
:101D8000010400000000080408041FFC0004000413
:101D900000000000010401FC0104010001FC010439
:101DA000010000FC010401FC0084010001000104A9
:101DB00000FC0004000000F8010401040104010417
:101DC00000F80000010101FF0089010401040088FE
:101DD0000070000000000070008801040104008908
:101DE00001FF00010104010401FC00840104010061
:101DF00001800000000000CC012401240124012402
:101E00000198000000000100010007F8010401042E
:101E100000080000010001F80004000400040108AB
:101E200001FC0004010001C00130000C013001C0C0
:101E30000100000001800170000C013001E0001C75
:101E40000160018000000104018C01700074018CAC
:101E500001040000010001810161001E0018016001
:101E60000180010000000184010C0134014401845F
:101E7000010C0000000000000000000000803F7C1A
:101E8000400240020000000000000000FFFF0000D0
:101E900000000000400240023F7C00800000000083
:101EA00000000000000040008000400040002000D2
:101EB00040000000000000000000000000000000E2
:101EC0000000000000000000000000000000000012
:101ED0000000000000000000000000000000000002
:101EE000000000000000000FEE380FF03800000086
:101EF00000000000000000000000000000000000E2
:101F000000000100000600000C0000380000310055
:101F1000000600000C000038000030000000000047
:101F200000000000C18000C1F800FF800FC18000E8
:101F3000C18000C18000C18000DFF80FE18000C1D6
:101F40008000000000000000000001C0E003E0F09D
:101F50000630480418081FFFFE048E080787F003A8
:101F600081E000000000000003E0000C18000808F9
:101F7000180C18E003F300001C000063E0038C1849
:101F80000C0808000C180003E00000000003E0004B
:101F900007F007E8180FFC08081F080FE3C807C080
:101FA000F0001070001F98001008001008000030AA
:101FB0000000000000003100003200001C000000A2
:101FC0000000000000000000000000000000000011
:101FD0000000000000000000000000000000000001
:101FE000000000007F000180C006003008000810DB
:101FF0000004200002000000000000200002100089
:10200000040800080600300180C0007F00000000C6
:1020100000000000000000000000000000000000C0
:102020006600006600002400001C0000080003FF9A
:10203000C0011800003C000024000066000066009B
:102040000000000008000008000008000008000070
:10205000080001FFC0000800000800000800000898
:102060000000080000000000000000003100003205
:1020700000001C0000000000000000000000000044
:102080000000000000000000000000000800000840
:102090000000080000080000080000080000080018
:1020A0000008000008000008000000000000000018
:1020B0000000000038000038000038000000000078
:1020C0000000000000000000000000000000000010
:1020D00000000000000600001C00007000018000ED
:1020E0000E0000380000C0000700001C0000300097
:1020F00000000000000000007F8001FFE00380700E
:102100000600180400080400080600180380700187
:10211000FFE0007F800000000000000000000200DF
:102120000802000802000803FFF807FFF800000893
:10213000000008000008000000000000000000018E
:10214000C01802C0380400480400880403080406CC
:1021500008060C0803F80801E07800000000000001
:102160000000000380700380700400080408080465
:10217000080806180803F41801E7F00001E0000061
:10218000000000000000000003000005000019002E
:1021900000210000C10801010807FFF807FFF8004F
:1021A00001080001080001000000000000E007FC39
:1021B000D004080804100804100804100804183893
:1021C000040FF00407C00000000000000000000041
:1021D0003F8001FFE0038430020818041008041057
:1021E00008041008071810030FF00007C0000000D3
:1021F000000000000000038000060000040000044E
:1022000000F80407F804180004E0000700000600C6
:102210000000000000000001C1E003F3F0063610EA
:10222000041808040808040C08040C08061618030F
:10223000F3F001C1E000000000000000F80003FC22
:1022400030030638040208040208040208040410DB
:102250000308F001FFC0007F000000000000000044
:1022600000000000000000000000000038380038C6
:1022700038003838000000000000000000000000B6
:10228000000000000000000000000000000000004E
:10229000301B00301C0000000000000000000000A7
:1022A0000000000000000000000000080000140012
:1022B0000022000041000080800100400200200454
:1022C00000100800080000000000000022000022AA
:1022D0000000220000220000220000220000220054
:1022E0000022000022000022000000000000000088
:1022F00000000800080400100200200100400080D7
:1023000080004100002200001400000800000000CE
:1023100000000000000001E0000260000200000474
:10232000003804073804083804180006100003F0C9
:102330000001E000000000007F0003FFE0070070E4
:10234000041F1808FF8809C088093F8805E0900627
:10235000013001FE400000000000080000380001CC
:10236000C8001E0801E20006020007820000FA0011
:10237000000F880001F800001800000800000004A9
:10238000000807FFF807FFF8040808040808040815
:102390000806180803F41803E7F00001E000000045
:1023A000000000003F8001FFE0038070020018047D
:1023B000000804000804000806001007003001C0EF
:1023C000C000000004000804000807FFF807FFF839
:1023D00004000804000804000802001003807001D3
:1023E000FFE0007F8000000004000807FFF807FFFF
:1023F000F8040808040808040808040808043F084A
:1024000006000806001801806000000004000807AC
:10241000FFF807FFF8040808040808040800040887
:1024200000043F00060000060000018000000000DC
:10243000000000003F8001FFE003807006001804E8
:1024400000080402080402080203F001C3F00002BD
:102450000000020004000807FFF807FFF80408085E
:102460000008000008000008000008000408080731
:10247000FFF807FFF8040008000000000000040057
:102480000804000804000807FFF807FFF804000824
:102490000400080400080000000000000000000024
:1024A000000600000704000104000104000307FF08
:1024B000FE07FFFC04000004000004000000000010
:1024C00004000807FFF807FFF8040C0800300000BC
:1024D0005C000587000701C80600780400180000AA
:1024E0000800000004000807FFF807FFF8040008D0
:1024F00004000800000800000800000800000800B0
:10250000001800006000000004000807FFF807F052
:102510000800FF000007F00001E0003E0003C008D3
:1025200007FFF807FFF80400080000000000080497
:10253000000807FFF807800801E008007800001E87
:10254000000403C00400F007FFF8040000040000CA
:10255000000000007F8001FFE00380700600180487
:10256000000804000806001803003001FFE0007FA7
:102570008000000004000807FFF807FFF8040408C3
:10258000040408040400040400040C00020800030E
:10259000F80001F000000000000000007F8001FF53
:1025A000E00380700600980400880400E806003C00
:1025B00003003601FFE6007F8400000004000807E6
:1025C000FFF807FFF8040808040800040800040ED8
:1025D00000040B800610E003F07801E0180000080A
:1025E00000000001E0E003F0300638100418080491
:1025F0001C08040C08040E080207180787F00001E5
:10260000E000000001800006000004000004000853
:1026100004000807FFF807FFF80400080400080496
:10262000000006000001800000000004000007FF19
:10263000E007FFF004001800000800000800000890
:1026400004001007FFE00400000000000400000682
:10265000000007E000047E000007E00000780001B1
:10266000C0001E0005E0000600000400000000009D
:1026700004000007C00004FF000003F80403C006C4
:102680003C0007FC00040FF80001E0043E0007C016
:10269000000400000000000400080600180780681D
:1026A00004E180003E000017000461C80780780440
:1026B0000018040008000000040000060000078065
:1026C0000004F008003C08001FF80007F800180894
:1026D00004600805800006000004000000000001FE
:1026E00080080700380600E804018804060804187A
:1026F0000804600805C00807001804006000000016
:102700000000000000000000000000000000003F8A
:10271000FFFE200002200002200002200002000034
:10272000000000000000000000000C00000300009A
:1027300000E0000018000007000001C000003000A9
:10274000000E00000100000000000000000020005A
:10275000022000022000022000023FFFFE000000D5
:102760000000000000000000000000000000000069
:1027700000000000001000002000004000004000A9
:102780000020000010000000000000000000000019
:102790000000010000010000010000010000010034
:1027A0000001000001000001000001000001000024
:1027B00001000001000000000000000000200000F7
:1027C00020000010000010000000000000000000C9
:1027D00000000000000000000000000000F00019F0
:1027E000F800199800210800220800220800221091
:1027F000003FF0001FF8000008000018000000046F
:10280000000007FFF80FFFF000181000100800206C
:1028100008002008003018001FF0000FC000000062
:102820000000000007C0001FF00018300020080062
:102830002008002008003C08001C10000060000078
:10284000000000000000000007C0001FF000381862
:1028500000200800200804200804101007FFF80FCB
:10286000FFF0000010000000000000000000000762
:10287000C0001FF0001130002108002108002108CD
:10288000003108001F1000072000000000000000B9
:10289000200000200800200801FFF803FFF80620B0
:1028A00008042008042008070000030000000000BE
:1028B00000000000000E000E7E001FF30031A1009A
:1028C00020A10030B1003FB3002F1E00301E0030A9
:1028D0000000000000000004000807FFF80FFFF8E8
:1028E000001008002000002000002008003FF80031
:1028F0001FF8000008000000000000000000002099
:1029000008002008002008063FF8067FF8000008AD
:1029100000000800000800000000000000000000A7
:102920000000000003000003002001002001062039
:1029300003063FFE067FFC000000000000000000D0
:1029400000000004000807FFF80FFFF8000108006E
:1029500002000007000038C800207800201800009E
:102960000800000000000000000004000804000847
:1029700004000807FFF80FFFF80000080000080037
:102980000008000000000000002008003FF8003FA1
:10299000F8001008002008003FF8001FF800100899
:1029A000002008003FF8003FF80000080000000089
:1029B0002008003FF8003FF8001008002000002029
:1029C00000002008003FF8001FF800000800000089
:1029D0000000000007C0000FF000183000300800B1
:1029E0002008002008003008001830000FF0000711
:1029F000C0000000000000002001003FFF003FFF7A
:102A000000101100200900200800200800303800C4
:102A10001FF0000FC00000000000000007C0001FF2
:102A2000F0003818002008002008002009001011CC
:102A3000001FFF003FFF0000010000000020080011
:102A40002008002008003FF8003FF80008080010A8
:102A500008002008002000003800001800000000D6
:102A6000000000000000001C78001E180033080061
:102A700023080021880021980030F8003CF0000075
:102A800000000000000000002000002000002000E6
:102A900000FFF003FFF800200800200800200800D5
:102AA0000030000000000000000000002000003F97
:102AB000F0007FF800001800000800000800201057
:102AC000003FF8007FF00000100000000000000050
:102AD0002000003000003E000023C00000F800008D
:102AE000300001C0002E0000300000200000000077
:102AF000002000003800002F800001F80020F000C6
:102B00003700003F000021F00000F00027000038EF
:102B100000002000000000000008002008003038FD
:102B2000003C480027800003800024C8003838009B
:102B300020180020080000000000000020000020F5
:102B400003003C010023810000FE00007000238090
:102B5000003C0000200000200000000000000000F9
:102B60000000003C180020780020C8002388002EB8
:102B70000800380800301800007000000000000055
:102B80000000000000000000000000000000000045
:102B900008000014001FE3FC2000022000020000D7
:102BA0000000000000000000000000000000000025
:102BB000000000000000FFFFFF0000000000000018
:102BC00000000000000000000000000000002000E5
:102BD000022000021FE3FC001400000800000000B7
:102BE00000000000000000000000000000000030B5
:102BF00000004000004000004000002000001000E5
:102C0000001800000800000800003000000000006C
:102C100000000000000000000000000000000000B4
:102C200000000000000000000000000000000000A4
:102C30000000000000000000000000000000000094
:102C40000000000000000000000000000000000084
:102C50000000000000000000000000000000000074
:102C6000000000000000000003F0006003FFF8F027
:102C700003FFF8F003F8006000000000000000000F
:102C80000000000000000000000000000000000044
:102C9000000000000000000000C0000001800000F3
:102CA000070000001E0000003C00000038C00000CB
:102CB00001800000070000001E0000003C00000032
:102CC00038000000000000000000000000000000CC
:102CD00000000000001C0E00001C0E00001C0FF085
:102CE000001FFF0003FC0E00001C0E00001C0E0065
:102CF000001C0E00001C0E00001C0FF0001FFF0047
:102D000003FC0E00001C0E00001C0E000000000062
:102D10000000000000000000000003C0007803E095
:102D200001FE0320010F0010020380100FFFFFFEC1
:102D30000200E0100200E0300130786001F03FC096
:102D400000F00F8000000000000000000000000004
:102D5000007E000001FF80000300C0000200403040
:102D60000300C1C001FF8600007E38000000C000E3
:102D700000071F8000387FE000C0C03003008010D3
:102D80000000C03000007FE000001F800000000055
:102D900000001F8000003FC000FEC06001FFC03087
:102DA0000303F01002017C1002061E1003FC07A0B2
:102DB00000F001C0000081E000008E700000F030E3
:102DC0000000803000008060000000C000000000B3
:102DD000000000000040000038C000003880000003
:102DE0003F0000001E000000000000000000000086
:102DF00000000000000000000000000000000000D3
:102E000000000000000000000000000000000000C2
:102E100000000000000000000000000000000000B2
:102E2000000000000000000000000000000FF8009B
:102E3000003FFE0000F00780038000E00600003045
:102E40000C00001810000004200000020000000028
:102E50000000000020000002100000040C00001818
:102E600006000030038000E000F00780003FFF0014
:102E7000000FF8000000000000000000000000004B
:102E80000000000000000000000000000000000042
:102E9000000000000000000000181800001C3800AE
:102EA000000C3000000660000002400000618F004E
:102EB00000FFFF0000F187000002400000066000F4
:102EC000000C3000001C3800001818000000000042
:102ED00000000000000000000000800000008000F2
:102EE00000008000000080000000800000008000E2
:102EF000007FFF00000080000000800000008000D4
:102F00000000800000008000000080000000000041
:102F10000000000000000001000000E3000000E2EB
:102F2000000000FC0000007800000000000000002D
:102F30000000000000000000000000000000000091
:102F40000000000000000000000000000000000081
:102F500000000000000080000000800000008000F1
:102F60000000800000008000000080000000800061
:102F70000000800000008000000080000000800051
:102F800000008000000080000000800000000000C1
:102F9000000000000000000000000060000000F0E1
:102FA000000000F0000000600000000000000000D1
:102FB0000000000000000000000000000000000011
:102FC0000000000000000000000000000000000001
:102FD000000000000000000C00000038000000E0CD
:102FE0000000038000000E00000038000000E00038
:102FF00000038000000E00000038000000E0000028
:10300000038000000E000000180000000000000017
:103010000000000000000000000FFC00007FFF80A7
:1030200000F003C0018000600300003002000010C7
:1030300002000010020000100180006000E001C0EA
:10304000007FFF80000FFC00000000000000000077
:1030500000000000000000000000000000800010E0
:1030600000800010008000100080003001FFFFF0A1
:1030700003FFFFF00000003000000010000000100F
:103080000000001000000000000000000000000030
:10309000000000000000000000780070009800B000
:1030A000010001300200023002000C300200183032
:1030B00002003030020060300300C03001838030F5
:1030C00001FF0070007C03C0000000000000000051
:1030D000000000000000000000F003C001F003E069
:1030E0000100002002000010020080100200801089
:1030F000020080100301C0100183402000FE6060C8
:10310000007C3FC000000F00000000000000000035
:103110000000000000000C0000003400000064000B
:1031200000018400000604000008041000300410B0
:1031300000C0041003FFFFF003FFFFF000000410C5
:103140000000041000000410000000000000000057
:103150000000000000000000000003C000FFC320CA
:10316000030080200301001003020010030200107E
:10317000030200100302001003030020030180E09B
:103180000300FFC003003F0000000000000000003B
:1031900000000000000000000007FE00003FFF806C
:1031A00000E0C1E001810060010300300202001074
:1031B00002020010020200100203003001C1806010
:1031C00001C0FFC000003F00000000000000000040
:1031D00000000000000000000070000003C00000BC
:1031E0000300000003000000030003F003003FF0B1
:1031F0000300C00003070000031800000360000084
:103200000380000003000000000000000000000038
:103210000000000000000F80007C3FC000FE7060D6
:10322000018F4020030380100203801002018010F0
:103230000200C0100200E0100301702001827860DB
:1032400000FE3FC000780F8000000000000000007A
:1032500000000000003F800000FFC0E001C0E0E08F
:1032600001003010020010100200101002001010B7
:103270000200103002002060010060C000C08780A2
:10328000007FFE00001FF8000000000000000000AA
:10329000000000000000000000000000000000002E
:1032A000000000000000000000030060000780F044
:1032B000000780F000030060000000000000000034
:1032C00000000000000000000000000000000000FE
:1032D00000000000000000000000000000000000EE
:1032E0000000000000000000000380760003807EE4
:1032F00000038078000000000000000000000000D3
:1033000000000000000000000000000000000000BD
:103310000000000000000000000000000000C000ED
:103320000001200000021000000408000008040052
:1033300000100200002001000040008000800040DA
:10334000010000200200001000000000000000004A
:103350000000000000041000000410000004100031
:10336000000410000004100000041000000410000D
:1033700000041000000410000004100000041000FD
:103380000004100000041000000410000000000001
:1033900000000000000000000200001001000020FA
:1033A000008000400040008000200100001002006A
:1033B00000080400000408000002100000012000C2
:1033C0000000C0000000000000000000000000003D
:1033D0000000000000000000003C000000FC0000B5
:1033E000019C00000100000002000060020000F0EB
:1033F00002007CF00200C060020080000101800039
:103400000183000000FE0000007C000000000000BE
:10341000000000000007F800003FFF00007003C03C
:1034200000C000600181FC200307FE10021E021094
:103430000230041002203C10021FFE10013C02204A
:1034400000800460006018C0001FE1000000000060
:103450000000001000000030000001F000001E100D
:103460000003F010003E100003C0100003C0100065
:1034700003FC1000003FD0000001FE1000001FF010
:10348000000001F00000003000000010000000000B
:1034900000000000020000100200001003FFFFF017
:1034A00003FFFFF002008010020080100200801075
:1034B0000200801002008010030180100183403060
:1034C00001FE6060007C3FC000000F800000000033
:1034D000000000000007FC00003FFF00007803C070
:1034E00000C0006001000020030000100200001076
:1034F0000200001002000010020000100100002075
:103500000180004001C00080007003000000000046
:1035100000000000020000100200001003FFFFF096
:1035200003FFFFF002000010020000100200001074
:10353000020000100300003001000020018000C0E4
:1035400000F003C0003FFF00000FF8000000000083
:1035500000000000020000100200001003FFFFF056
:1035600003FFFFF0020080100200801002008010B4
:1035700002008010020080100201C0100207F0104B
:103580000300003003800070006001800000000034
:1035900000000000020000100200001003FFFFF016
:1035A00003FFFFF002008010020080100200800084
:1035B00002008000020080000201C0000307F80042
:1035C0000300000003800000006000000000000015
:1035D000000000000007F800003FFF00007003C07B
:1035E00001C0006001000030020000100200001065
:1035F00002000010020020100100202001C03FC086
:1036000000703FC00000200000002000000000000B
:10361000020000100200001003FFFFF003FFFFF0A4
:103620000200801002008010000080000000800076
:103630000000800000008000020080100200801066
:1036400003FFFFF003FFFFF0020000100200001074
:103650000000000000000000000000000200001058
:1036600002000010020000100200001003FFFFF033
:1036700003FFFFF002000010020000100200001023
:103680000200001000000000000000000000000028
:10369000000000000000000E0000000F0000000FFE
:1036A000000000010200000102000001020000030E
:1036B0000200000603FFFFFC03FFFFF8020000000A
:1036C00002000000020000000200000000000000F4
:1036D00000000000020000100200001003FFFFF0D5
:1036E00003FFFFF00200C010020100100007C0003D
:1036F0000018F00002603C0003C00F90030003F0CC
:103700000200007002000010000000100000000025
:1037100000000000020000100200001003FFFFF094
:1037200003FFFFF002000010020000100000001074
:103730000000001000000010000000100000001049
:103740000000003000000070000001800000000058
:10375000020000100200001003FFFFF003F0001051
:1037600001FF8000000FF80000007FC0000003F0A0
:1037700000000F000001F000001E001001E000102A
:1037800003FFFFF003FFFFF0020000100200001033
:10379000020000100200001003FFFFF00380001081
:1037A00001E0001000780000001E0000000780000B
:1037B0000001E0000000780000001E000200078009
:1037C000020001E003FFFFF0020000000200000021
:1037D00000000000000FF800003FFF0000F003C0F1
:1037E00001800060010000200200001002000010B3
:1037F00002000010020000100100002001800060A3
:1038000000F003C0003FFF000007FC0000000000C4
:1038100000000000020000100200001003FFFFF093
:1038200003FFFFF0020040100200401002004000C1
:10383000020040000200400002004000030080003F
:103840000181800000FF0000007E000000000000F9
:1038500000000000000FFC00003FFF8000F001C0EE
:10386000018001E0010002200200021002000210AB
:1038700002000310020001F0010000FC0180006E54
:1038800000F001C6003FFF86000FFC0800000000AA
:1038900000000000020000100200001003FFFFF013
:1038A00003FFFFF002008010020080100200800081
:1038B0000200E0000200FC0003019F80018303F08E
:1038C00001FE0070007C00100000001000000000ED
:1038D00000000000007C070000FE01F0018700608E
:1038E0000303002002038010020180100201C010B7
:1038F0000200C0100300E0100100603001C07860D9
:1039000003F03FC000000F80000000000000000036
:1039100000000000006000000380000003000000C1
:1039200002000000020000100200001003FFFFF080
:1039300003FFFFF002000010020000100200000070
:10394000020000000380000000E000000000000012
:10395000020000000200000003FFFF8003FFFFE001
:1039600002000060020000300000001000000010A3
:1039700000000010000000100200002002000040C3
:1039800003FFFF80020000000200000000000000B2
:1039900000000000020000000200000003E0000040
:1039A00003FF0000021FF0000000FF0000000FF006
:1039B000000001C000001E000001E000021E000027
:1039C00003E000000300000002000000000000000F
:1039D000020000000380000003FF0000021FFC0043
:1039E00000003FF0000007C00200780003CF800015
:1039F00003FF8000021FFF0000003FF000000F8067
:103A00000203F00003FC00000300000002000000BD
:103A1000000000000200001002000010038000708F
:103A200003E001D002780610001E18000007E00035
:103A30000003F000000C3E0002300F9002C003F0C3
:103A400003000070020000300200001000000000BF
:103A500000000000020000000300000003C000009E
:103A600003F80000023E00100207C0100001FFF042
:103A700000007FF000018010020E001002700000B4
:103A800003800000020000000200000000000000AF
:103A900000000000000000100060007003C001F092
:103AA0000380039003000E1002003C100200F0108F
:103AB0000203C010020F0010021C00100270003040
:103AC00003E00030038000F00200018000000000ED
:103AD00000000000000000000000000000000000E6
:103AE00000000000000000001FFFFFFC1FFFFFFCA4
:103AF0001000000410000004100000041000000476
:103B0000100000041000000400000000000000008D
:103B1000000000000000000000000000060000009F
:103B20000780000000F00000003C0000000780005B
:103B30000001E00000003C0000000F80000003E0F6
:103B40000000007C0000001E0000000200000000D9
:103B5000000000000000000010000004100000043D
:103B60001000000410000004100000041000000405
:103B70001FFFFFFC1FFFFFFC000000000000000013
:103B80000000000000000000000000000000000035
:103B90000000000000000000000000000000000025
:103BA00004000000080000003800000030000000A1
:103BB0003000000030000000180000000400000089
:103BC00000000000000000000000000000000000F5
:103BD00000000001000000010000000100000001E1
:103BE00000000001000000010000000100000001D1
:103BF00000000001000000010000000100000001C1
:103C000000000001000000010000000100000001B0
:103C10000000000000000000000000002000000084
:103C20002000000020000000300000001000000014
:103C3000080000000000000000000000000000007C
:103C40000000000000000000000000000000000074
:103C500000000000000003C00001C7E00003CC30FA
:103C600000020810000418100004101000041010C6
:103C70000004101000041020000620200003FFE0C4
:103C80000001FFF0000000100000001000000060C4
:103C900000000000020000000200000003FFFFF02F
:103CA00007FFFFE000018060000200100004001028
:103CB0000004001000040010000600300003006043
:103CC0000003FFC00000FF00000000000000000033
:103CD000000000000000000000007F000000FFC0A6
:103CE000000380E000030020000600100004001024
:103CF0000004001000040010000400100003C020A5
:103D00000001C04000000180000000000000000031
:103D1000000000000000000000007F000001FFC064
:103D20000003806000060030000400100004001052
:103D300000040010020400200202004003FFFFF014
:103D400007FFFFE00000002000000020000000004E
:103D5000000000000000000000007F000000FFC025
:103D6000000388E000020820000408300004081066
:103D700000040810000408100002081000030820C6
:103D80000001F860000078800000000000000000E2
:103D9000000000000000000000040000000400100B
:103DA0000004001000040010007FFFF001FFFFF08E
:103DB00001040010020400100204001002040010AC
:103DC0000204000003C0000001C000000000000069
:103DD00000000000000000000000001C0000E3BE26
:103DE0000003FFE200020CC1000404C1000404C18E
:103DF000000404C1000404C100060C410003F86281
:103E00000005F07E0006003C0006000000000000F7
:103E100000000000020000100200001003FFFFF08D
:103E200007FFFFF000010010000200100004000076
:103E30000004000000040010000600100003FFF062
:103E40000001FFF000000010000000100000000062
:103E5000000000000000000000000000000400104E
:103E60000004001000040010010400100387FFF09C
:103E7000038FFFF001000010000000100000001090
:103E80000000001000000000000000000000000022
:103E9000000000000000000000000000000000061C
:103EA0000000000700000001000400010004000100
:103EB00000040001010400060387FFFC038FFFF8E4
:103EC00003000000000000000000000000000000EF
:103ED00000000000020000100200001003FFFFF0CD
:103EE00007FFFFF000000C10000018100000300069
:103EF00000007C0000048E0000070390000601F023
:103F000000040070000400300000001000000000F9
:103F1000000000000000000000000000020000108F
:103F200002000010020000100200001003FFFFF06A
:103F300007FFFFF00000001000000010000000105C
:103F40000000001000000000000000000000000061
:103F5000000400100007FFF0000FFFF00002001047
:103F60000004000000040000000400100007FFF03F
:103F70000003FFF000020010000400000004000035
:103F8000000400100007FFF00003FFF00000001025
:103F90000000000000020010000200100003FFF00B
:103FA0000007FFF0000100100002001000040000F4
:103FB0000004000000040010000600100003FFF0E1
:103FC0000001FFF0000000100000001000000000E1
:103FD000000000000000000000003F000000FFC0E3
:103FE000000380E000020020000400100004001024
:103FF000000400100004001000020020000380E014
:104000000001FFC000007F00000000000000000071
:104010000000000000020001000200010003FFFF99
:104020000007FFFF000100610002002100040010F2
:10403000000400100004001000060030000300E03F
:104040000001FFC000007F00000000000000000031
:10405000000000000000000000007F000001FFC021
:104060000003806000020030000400100004001013
:104070000004001000060021000300610003FFFFA0
:104080000007FFFF00000001000000010000000029
:1040900000000000000200100002001000020010EA
:1040A000000200100007FFF00007FFF00000C01042
:1040B0000001801000020010000200100004000047
:1040C00000040000000700000003000000000000E2
:1040D000000000000000000000000000000001F0EF
:1040E0000001E0600003F02000063010000418100A
:1040F0000004181000041C1000040C1000020E3004
:10410000000307E00007C3C000000000000000003B
:104110000000000000000000000400000004000097
:1041200000040000000C0000001FFFC000FFFFE0C3
:10413000000400300004001000040010000400100F
:1041400000040020000000C000000000000000008B
:104150000000000000040000000400000007FFC091
:10416000000FFFE000000030000000100000001011
:104170000000001000040020000400400007FFF0D1
:10418000000FFFE000000020000000200000000001
:104190000000000000040000000400000007800090
:1041A0000007E00000047C0000000F80000003F026
:1041B000000000E00000038000041C000004E00098
:1041C000000780000006000000040000000000005E
:1041D00000040000000600000007E0000004FE00EC
:1041E00000040FE0000001F000040F000007F000E1
:1041F0000007F80000043F80000003F0000003C047
:1042000000043C000007C00000060000000400009D
:104210000000000000000010000400100004003046
:1042200000070070000781900005E20000007C009C
:1042300000001C000004671000048390000700F0D9
:1042400000040070000400100000001000000000D6
:104250000000000000040000000400030007000349
:104260000007C0030004780300001E06000003F8E6
:10427000000000C000000700000438000007C00074
:104280000006000000040000000400000000000020
:1042900000000000000000000007C03000070070B0
:1042A000000401D00004039000040F1000041C104F
:1042B000000478100004E0100007C0100007003070
:1042C00000060070000001C00000000000000000B7
:1042D00000000000000000000000000000000000DE
:1042E000000000000000000000000000000080004E
:1042F00000018000000140000FFE3FF810000004A4
:104300002000000220000002000000000000000069
:10431000000000000000000000000000000000009D
:10432000000000000000000000000000000000008D
:10433000FFFFFFFF00000000000000000000000081
:10434000000000000000000000000000000000006D
:10435000000000000000000000000000200000023B
:1043600020000002100000040FFE3FF80001400092
:10437000000180000000800000000000000000003C
:10438000000000000000000000000000000000002D
:1043900000000000180000002000000040000000A5
:1043A00040000000400000006000000030000000FD
:1043B0001C000000040000000600000002000000D5
:1043C00002000000040000001800000000000000CF
:1043D000CED20000000000000000000000400000FD
:1043E0000E7000003E630007E061C0086060E000FE
:1043F0006060600060606000606010006060303F7E
:10440000FFFFF800602000006020000060204000F6
:104410006030E0006130C0006E3180007033000712
:10442000E033003E60160038601C00106018000089
:10443000603C0400606E04006187040063038C002C
:104440006C01CC07F000FC01C0003C0080000600BD
:10445000000000C3C7000000000000000000008052
:10446000000000C2000001C180000181C010018075
:10447000CFF80300C01803088018020E0018070CBC
:104480000018078C00180F0C00180B0C0018130CE8
:104490000018130C0018230C0018430C0018030C10
:1044A0000018030C0018030C0018030C0018030C70
:1044B0000018030C0018030C0018030C0018030C60
:1044C0000018030C0018030C03F0030C0070020822
:1044D000002000000000B6BC00000000000000004A
:1044E000000040000000600000006088080060CF0D
:1044F000FC0064CC180FFF8C1800618C1000630C5A
:104500003000660C2000646C203FEFFC4000180C6B
:104510004000300C4000610C6002FF8C2003018CD5
:104520001007010C181B010C0823010C0C03FF0CD5
:104530000C03010C0C03010C0C03010DF803010C1E
:104540007803FF8C2003018C0003018C0003000C16
:10455000000000080000000000CAC70000000000C2
:104560000000000000000200007FFF000060060065
:104570000060060000600600007FFE00006006008C
:10458000006006000060060000600600007FFE007C
:104590000060060000400400000000303FFFFFF80C
:1045A0000001800000C1800000E1800000C180C0E7
:1045B00000C1FFE00181800001C1800001A18000F5
:1045C00003198000060D8000060780000C01FFFC27
:1045D00010003FF02000007000000000BAC300008F
:1045E000000000000000000100000001C000000108
:1045F0008000200181FFF001800070010000C003F5
:104600000800803FFC0100030806000308060002C2
:1046100018060006180600061806000418061804F6
:1046200017FFFC0C3006000C3006000830060008AE
:104630006006000E60060001C0060000F0060000E3
:10464000BC0600018C0600030406000400060008F6
:1046500000FC0030001C000000080000000000BA50
:10466000A200000000000000000000001000000098
:104670000C0000100E001FF8060000380418002F70
:10468000FFFC004030000080380002807000038092
:1046900060800300C0C0030081C0030901800333B0
:1046A000FF0003C1C300070006201F000C303B00C1
:1046B0001860230030E0030061C00300C1800303E1
:1046C00003000304078003181CC0030030700300BC
:1046D000E0381F038018070C00180270001000005B
:1046E0000000D7D300000000000000000000000020
:1046F000000000004003FFFFE0000001F0000003A5
:10470000800000060000000C000000300000016086
:10471000000001C0000001C0000001801000018005
:10472000383FFFFFFC000180000001800000018095
:104730000000018000000180000001800000018075
:104740000000018000000180000001800000018065
:104750000000218000001F80000007000000020010
:104760000000000000CFC4000000000000000000B6
:1047700000000020000000701FFFFFF8000600008E
:104780000104010001FFFF800180018001800180A0
:1047900001FFFF80018001800180018001FFFF8017
:1047A00001800180018001800180018001FFFF8084
:1047B0000118000000300600003FFF0000700C00F0
:1047C00000C8180001863000020360000401C00028
:1047D0001803F000000E3E0000700FFE038001F091
:1047E0007C00001000000000BCF20000000000008F
:1047F00000000001001000018038000302301003A7
:1048000007603806F87FC00C20C200083183000022
:104810000000000000000000000000000000000098
:104820000000000000000000000000000000000088
:104830000000000000000000000000000000000078
:104840000000000000000000000000000000000068
:104850000000000000000000000000000000000058
:1048600000000000000000000000001132010020E4
:1048700080002000C7FFF004600060066000600652
:10488000101060060FF860060838600608306000F7
:104890000000000000000000000000000000000018
:1048A0000000000000000000000000000000000008
:1048B00000000000000000000000000000000000F8
:1048C00000000000000000000000000000000000E8
:1048D00000000000000000000000000000000000D8
:1048E00000000000000000000000000000000608BA
:1048F000306006083060060FF06006083060060879
:1049000030600608306006083060060FF060060868
:104910002060000000000000000000000000000017
:104920000000000000000000000000000000000087
:104930000000000000000000000000000000000077
:104940000000000000000000000000000000000067
:104950000000000000000000000000000000000057
:104960000000000000000000000000000000000047
:104970000006000060060007E0060000E0060000F8
:1049800040000000000000000000000000000000E7
:104990000000000000000000000000000000000017
:1049A0000000000000000000000000000000000007
:1049B00000000000000000000000000000000000F7
:1049C00000000000000000000000000000000000E7
:1049D00000000000000000000000000000000000D7
:1049E00000000000000000000000000000000000C7
:1049F00000000000B7E5000000000000000000001B
:104A0000003000038030000300604003007FE003BB
:104A100000C0600300C0C00321A1801B3913001334
:104A2000320E0013340E0013301B80133031F0139C
:104A300030687C13318E1813360C2013380C301369
:104A400031FFF813300C00000000000000000000EF
:104A50000000000000000000000000000000000056
:104A60000000000000000000000000000000000046
:104A70000000000000000013300C0013300C601721
:104A8000F0FF801C300C0010200C0800000C1C00F3
:104A900007FFE000000C0000000C0000000C00000C
:104AA000000C0000000000000000000000000000FA
:104AB00000000000000000000000000000000000F6
:104AC00000000000000000000000000000000000E6
:104AD00000000000000000000000000000000000D6
:104AE00000000000000000000000000000000000C6
:104AF0000000000000000000000000003000000086
:104B00000000000000000000000000002C4B000826
:104B100000000020901B00006C010008645D00088C
:104B2000901B002038070000D0010008500600A2AA
:104B30004A04000160090102030406070809101075
:104B4000340000CED20004400E5078480848084097
:104B5000FFFE084008440A440C48183068220852F6
:104B6000088A2B061002C3C7000900088008BC127F
:104B7000041204320210045204920A7102102D141D
:104B80001208B6BC00080008BE7EA209240A24FF51
:104B9000E8082410243F226122A1223F3421282149
:104BA000203F202120CAC7001FF010016106102DF0
:104BB0000000FFFE0100110011F81100290045005E
:104BC00083FEBAC300100010FC10041008FC10246F
:104BD00020242025FE2420482028201004200C44D6
:104BE0002084A00040BAA20000202210130BFE1067
:104BF000201042148419F83010D02210C413085B1E
:104C000010082850C42302D7D3D7137FF84B30079E
:104C1000200040018001678102100705000200CAE0
:104C2000B505100F01007FFE4002888404800480D7
:104C30001080E0128090200D4002200410180860BF
:104C400004CAB100D310087C08440845FE4406118C
:104C50000A1004884448023114500700280010B597
:104C6000E75320053FF82108029108100A0A0102C3
:104C7000010200FED1B98C40073FFE2000208002D7
:104C8000332FFC08240E902088208840805FFE800F
:104C900000CFC4878420100FE0120003E00DC00A8B
:104CA000400DC007C0048007400A80118023400CDB
:104CB00038000CA1F1B01010007E0001FF8003FF4E
:104CC000C007FFE00FFFF003D0041FFFF8034118F7
:104CD00011211127112D113375EF93A1F44B100BF6
:104CE0001000003800007C0000FE54200F0003FF7D
:104CF0008007FFC00FFFE01FFFF03F48114512E0A3
:104D0000121118111E1124212A323836693A214510
:104D1000195C300C660007C46039043001041003CC
:104D2000100A087FFFFC0104000106031023300174
:104D3000362001C2400F02C0790380210300010721
:104D400000010D840110C401E0740F001C02000674
:104D50004B19624192301702000003100006080050
:104D60000409FC0400080860080E400814031A2413
:104D70009A0004174008040320047804409A198A12
:104D800029E819EB1208691028FE1FF98C01118817
:104D90000131880165907FFF9000C1900181A00BD7
:104DA000019007F9881C118C24118407F1840411E7
:104DB00003200AEC04119C07F180041103214060D8
:104DC000040000CA96157130070100C00100800977
:104DD0006103310C192530083FFFFC020800030372
:104DE0001005020FF007BD140888000C48000838B1
:104DF000D61005FC600078E119DA4573420603100D
:104E00000F1FF80400180400207FC0400C408003EE
:104E10001B08C08018078408BFFE18808D301880DA
:104E20001100800D008003808002C0800460801823
:104E3000008020078040962D0203452A1816018025
:104E40003FC180008084017FFE020200040600044E
:104E5000043004BB1025F7400518C00E01983C0132
:104E600018640230040C600410400460C00481B077
:104E7000040618040C1C1C700C09B93F00002A031E
:104E8000590C193130060000600000FC11A34218D3
:104E90000325CB610CE1032004019800DD2230964C
:104EA00057B4B477602003000C03800C02600C043C
:104EB000180C04198C08088C10008C1FF08C28200A
:104EC0008C48208C0803500909E08C08C10C0808A4
:104ED000031101480407F8785C9BD0C20D10100044
:104EE000180103E03FF2000842000C420004032BCB
:104EF00082005E100902300112303FFA3009241995
:104F00000942300D22301936301114302104304955
:104F10000830071030022020C26AB5E811C32E0CF9
:104F2000D10318170FFFFC10000C11041030C6003D
:104F300000640000440006040003AC120C0325CBFF
:104F40001DF5031C06001C00001367042009E00087
:104F5000C0300700183813680500D1E900591C1B40
:104F6000003F83800182801106401904201108301F
:104F700011181811102E113FF011EC033C1FC01036
:104F800000C2180093180089100F89B07089A00022
:104F900089200088401180440F3FFC0239034ECA2B
:104FA00039033230961C0908080FFFF8100018F971
:104FB000041C0430004072032118440F408001801B
:104FC00060063FE007C0200010206E1DCF03B5959E
:104FD000314B6FB6E01704321851300E7FF000806D
:104FE000300360E00C31801033F31007380001CC3F
:104FF000001E1E200F3FF800601801C03006206020
:105000000830C0E132061E3004C0001E9673B9A6F7
:10501000E13904600F21003FF100020100021FFC92
:1050200002010C033007080203080202031C166287
:10503000080384083C0C0830080800100800219878
:1050400000C0700174056C050000C4DCCC03603046
:10505000030006021004423808226030F3803F1239
:10506000000012041FE2041863FC1860001FE40033
:105070001862101862381862601FE3801862040317
:105080002C070619E3FC104084035BBCC6A01E0875
:105090002A04300403000203620003B00A7E030402
:1050A00004FFFC04030003100A430004830005030B
:1050B00000077E712D15773EFD02071D7306203D0A
:1050C00011800911000D23000942003FFBFC03067B
:1050D0001007C610052610093A30310A3041013058
:1050E0000301207FF1200621E00420C00E40C00112
:1050F000E1E001B33006161C18180C60E06C0400E7
:10510000C6F736037006C7F00C663003280A0FE7AF
:10511000F00C7FB00830C8491C05420000816506CC
:10512000600C800600700FE7FC3464300403100448
:1051300007E7F0062708442C7FB2E28D0510090826
:1051400009FE080D86080103300AB66841B64833E7
:10515000B64813036205032309A6031C1339A448A8
:1051600019600818580818C4081886081B02384D1A
:1051700004219639EE1C06010004011F59071EC0C8
:105180004104100A09E0800907FC09040403200611
:105190007FF4440104031209033C1C24441134C469
:1051A0001164C42044804080800181B003010C045C
:1051B000060C18080620CF033BC2CAA35E20EA03F0
:1051C0001D0F062D2D06100C22000C4330048640C6
:1051D00000F880AF200C0324C004433038FD1800D1
:1051E00019BE2D2904831000034D35047C050000F1
:1051F000CFE0CC03200808020FFC020408033005AE
:1052000024083FF409101507F807040806C4080627
:1052100064080A24080A07F8120408034005220457
:1052200008422A2307F8303E0C72063EBB24061DB6
:105230006A051805040002065B180500040208014F
:1052400019E7100C0E002014003014206024100305
:105250002006404418400403240980040880040008
:105260008004153C060405FFFE04B0061DB0046F63
:10527000B3CC1207600A800007DFF83A080802037F
:1052800014057FEFF8060924191008073FFC0AC02F
:10529000800A40801A0080120088221FFC220080B1
:1052A00042D111032C0584067FFEBB065C0500007D
:1052B000BFD80707219032016C2C143FFC7FA00C53
:1052C0000464080406C0040C300498180520C906BC
:1052D000D805743FF064AC19AF2C04FFFC3C6B089C
:1052E00035775ECB06071E104705343902100603DA
:1052F000F8040204007FFC414208214228326FF882
:105300001252080242080443F80440000441000815
:1053100044800894C838940418B4161924141964E5
:10532000101A07F02B3C0400B2A89E071575200444
:1053300001000CFF1D6F09300CFC00C10861411019
:105340003141001203180A027FF804481004482073
:105350008B1D5D072C1538C2C018818018838019F9
:1053600006601B08301A301E04C027063FD4F681A1
:1053700003231020CC230440031C293FFC052108F3
:105380007FB128042938042D2804254804218804E5
:105390003FF8046018041FF80590100E1010701FDD
:1053A000F02010D6041E10F7094200095405000031
:1053B000D2E6751D50071E00BD061C06C100004246
:1053C00010B2081E00ED031EC38C041C0BC00300AA
:1053D000700C0038100030DF08F004044620037E13
:1053E00024FB0436BD771D6303180800C12000812B
:1053F000101F881C0681080081047C081C0902819A
:10540000000741000461D5062C22980C41981C40ED
:10541000902FFC904C40A00C40E00FF8400C44E46E
:105420000FFDB40C031C0C040C081893054FD6B9DF
:1054300063043D3105910319765008020C10020FE8
:10544000F8020C0113038D8E051D46055FB7C54696
:10545000051C04060180FE04120103300902007FCE
:10546000FBFC0C0410032008300FEA300C62200310
:105470001C0A616008614008414008FE073C104179
:10548000C010436014463023C81C21B00C40FB04FC
:105490009FB4F3BD068D5A033DA5069E1089072CC7
:1054A00005340000249C031C090063000041000037
:1054B000C03C0625473C0704003C180008AF046CBC
:1054C0000400B8DFCF0321392E04E7061D69091D4A
:1054D000DB091D64081D67081D500A2DCA081E003F
:1054E0003E0A600918001818FF18188103410C11B2
:1054F000153C040078109E077FB5CD9B072C073024
:105500000601E0047F700520080841000C41001CE2
:10551000033006082C7FFC4C0F31032DDC082C11C6
:105520000C40C00C44440C58640C68340C461C0CF1
:1055300003042DCF036FCDA88403177FE0F21C0670
:105540000808C00C073E083DBD0B134208031A7C37
:10555000A019EE4103A10C1C0642181A4238E306BA
:105560001E606705231FF84B46D6C19032400C00E1
:10557000600C7C400C48400C4BFC7F48800C5080F9
:105580000C51000C51FC0F49841D4B841D4DFC2C0B
:105590004D842C6D842C59844C41FC0C4184032C8B
:1055A000049C0841E9075FD4B2690B150E1D9405F0
:1055B00021031005FF88108106220806300B000821
:1055C00011FF88110088111803321003600C350890
:1055D00010238810C0C8110048363D410A96AEC25B
:1055E000ED3F090D1A5A09B103314C8C04B7D600AE
:1055F000230B1D21092C05C2000182CC061C0503CA
:10560000018002E004200F00600800B017FFDE6098
:10561000208800608003324003228003120124347A
:105620000701800C0F0010775FB1B48C0A200703CC
:10563000FFE0020020030008121020021C200218C4
:1056400003111B1D270C1E32100811572EC0E30733
:10565000280480380610252C00041ED2BB0001BD92
:105660001E030119287FC7A7E20C04093140000777
:10567000E003F800042F352C4FBAD5450519DC425C
:10568000C0031DCF0C41091D1D041004048120031B
:10569000201B1CC12014A73034AD2824B924448910
:1056A000264892260892200882201084033C052375
:1056B00088E04180086FD7C8030C1E81B0043E000B
:1056C000B0042DDE0C46027A3E01DF084C0C72302D
:1056D00008642011C9E01E8E401B0C2C1202012010
:1056E0000442100824181BFFFC1C360C0020410A41
:1056F0005FBCD30807A10370077FF3FC02320803E5
:105700002306220362040330050C220808033C0B25
:105710001663F811C20C20820C4039036FBCF5BB34
:10572000061C0C00F020009818008809FFFC2D0CC6
:1057300012050312FE061C238C0980880980980933
:10574000BE9851A6903126F01126E0112640333E36
:10575000C23224E232013404021C720B2F10107A80
:105760000D6FCEAA0A0E261C713203033E0171048E
:1057700030093FFFFE00100C0030031C122C0C00FF
:10578000630C00418C00C0C8008048018008CE072F
:1057900019071F0807B90A11841D390C640400C9D0
:1057A000E8F310091FC00418600618400333001006
:1057B000031C0D20407E607E048020053FF00448DD
:1057C000061D600F11031D48061C064480048380DB
:1057D000AB093C0B0606C006187000601C01990C52
:1057E0008FD6C3960C16084A3103210C3D51062D65
:1057F00030063B1040BE15101109D2C0061005023C
:1058000000447FBD4D91055EF99E0721031E3F5563
:105810000E1DA30B200800248FF0248C10034109D7
:1058200010098800249FFC24918C03500A26918C37
:10583000259FFC04118C035F1FFCBA054C0400007B
:10584000CC72065D860A100D10323FF8320300223A
:1058500003003FC306100604427FFE427B1C064045
:10586000600380441C08140B1A0040721040221878
:105870004002B52208A810060206400201AB2D6ABC
:10588000053FD0D43B0F2DAC091D700E2013000432
:10589000190004310006310805BFFC15A1002441A0
:1058A00003100564810004031D56073DBF079103E3
:1058B0001DF50A8DCA083FC7FA17101D6E0A32433C
:1058C0000631031D540C7538853EC11285562DBF17
:1058D0000B3DAB094D270616048F1C1B8006066086
:1058E00004063008862008C618108FFC3176007F29
:1058F00006002206080461081EFACA093C1A1013A1
:1059000082303C02601003C000018403C3847C0C1D
:10591000C430186400E03C3F0D3F00CEA60E1D7F52
:10592000061E0C6F0C1C0E204010A4C020A4C04406
:10593000A48007FC0B073C2A8808018819FF8818F7
:10594000019828029048F85008C85008C950088AA1
:1059500020088C60088C7008899809030C0A0404DC
:1059600008410A7FC8F5A40E3007F83FE018004050
:10597000032C0847F80FC6180844460F1C0B1004E8
:10598000003FEFFC10440808210610114188064131
:105990008800C0280340C80C4308704C7D4C051893
:1059A000038078990C4ED09E071DF20D4602C52D3E
:1059B0003E0A19131DC10C880E0C7FF81400001448
:1059C0000010247FF844318005F80420100319BE2C
:1059D000310F2D65047EC546054973810349912D1C
:1059E000030C3EC0500F11032C04FFE0015D0F6259
:1059F00040031C04C00018780A3E80FD10380400E3
:105A0000BCEC0D2DCE0A1C0E00040700040500049A
:105A10000C807FC840A50E1C040C201C01113C18F2
:105A20000DBFE00D80001484301402302422302495
:105A300023204413200411D80F11031DE00A31C69E
:105A40000D4C4E0CAE569E052C05F0E06040BF128A
:105A50001230021DB2131DF20B100419000A021EAF
:105A60000E26090C041D040004DC050E1472F30557
:105A70001C07F9C01A601C605D089102021DFF4BF3
:105A800002146D4BD006ECE0776066022DD1100D4C
:105A90001A72060214736210100FC038C030403002
:105AA000401C000F0003C020020C051C31C03F80C9
:105AB000BD060D493C0F0D497A0DA657C21008EFDF
:105AC000704620422062021006264026402702101F
:105AD000063940398019023611D20D1C9E076FBC61
